{
  "contractName": "Exchange",
  "abi": [
    {
      "inputs": [
        {
          "internalType": "address",
          "name": "_feeAccount",
          "type": "address"
        },
        {
          "internalType": "uint256",
          "name": "_feeRate",
          "type": "uint256"
        }
      ],
      "stateMutability": "nonpayable",
      "type": "constructor"
    },
    {
      "anonymous": false,
      "inputs": [
        {
          "indexed": false,
          "internalType": "uint256",
          "name": "id",
          "type": "uint256"
        },
        {
          "indexed": false,
          "internalType": "address",
          "name": "user",
          "type": "address"
        },
        {
          "indexed": false,
          "internalType": "address",
          "name": "tokenGet",
          "type": "address"
        },
        {
          "indexed": false,
          "internalType": "uint256",
          "name": "amountGet",
          "type": "uint256"
        },
        {
          "indexed": false,
          "internalType": "address",
          "name": "tokenGive",
          "type": "address"
        },
        {
          "indexed": false,
          "internalType": "uint256",
          "name": "amountGive",
          "type": "uint256"
        },
        {
          "indexed": false,
          "internalType": "uint256",
          "name": "timestamp",
          "type": "uint256"
        }
      ],
      "name": "Cancel",
      "type": "event"
    },
    {
      "anonymous": false,
      "inputs": [
        {
          "indexed": false,
          "internalType": "address",
          "name": "token",
          "type": "address"
        },
        {
          "indexed": false,
          "internalType": "address",
          "name": "user",
          "type": "address"
        },
        {
          "indexed": false,
          "internalType": "uint256",
          "name": "amount",
          "type": "uint256"
        },
        {
          "indexed": false,
          "internalType": "uint256",
          "name": "balance",
          "type": "uint256"
        }
      ],
      "name": "Deposit",
      "type": "event"
    },
    {
      "anonymous": false,
      "inputs": [
        {
          "indexed": false,
          "internalType": "uint256",
          "name": "id",
          "type": "uint256"
        },
        {
          "indexed": false,
          "internalType": "address",
          "name": "user",
          "type": "address"
        },
        {
          "indexed": false,
          "internalType": "address",
          "name": "tokenGet",
          "type": "address"
        },
        {
          "indexed": false,
          "internalType": "uint256",
          "name": "amountGet",
          "type": "uint256"
        },
        {
          "indexed": false,
          "internalType": "address",
          "name": "tokenGive",
          "type": "address"
        },
        {
          "indexed": false,
          "internalType": "uint256",
          "name": "amountGive",
          "type": "uint256"
        },
        {
          "indexed": false,
          "internalType": "uint256",
          "name": "timestamp",
          "type": "uint256"
        }
      ],
      "name": "Order",
      "type": "event"
    },
    {
      "anonymous": false,
      "inputs": [
        {
          "indexed": false,
          "internalType": "uint256",
          "name": "id",
          "type": "uint256"
        },
        {
          "indexed": false,
          "internalType": "address",
          "name": "user",
          "type": "address"
        },
        {
          "indexed": false,
          "internalType": "address",
          "name": "tokenGet",
          "type": "address"
        },
        {
          "indexed": false,
          "internalType": "uint256",
          "name": "amountGet",
          "type": "uint256"
        },
        {
          "indexed": false,
          "internalType": "address",
          "name": "tokenGive",
          "type": "address"
        },
        {
          "indexed": false,
          "internalType": "uint256",
          "name": "amountGive",
          "type": "uint256"
        },
        {
          "indexed": false,
          "internalType": "address",
          "name": "userFill",
          "type": "address"
        },
        {
          "indexed": false,
          "internalType": "uint256",
          "name": "timestamp",
          "type": "uint256"
        }
      ],
      "name": "Trade",
      "type": "event"
    },
    {
      "anonymous": false,
      "inputs": [
        {
          "indexed": false,
          "internalType": "address",
          "name": "token",
          "type": "address"
        },
        {
          "indexed": false,
          "internalType": "address",
          "name": "user",
          "type": "address"
        },
        {
          "indexed": false,
          "internalType": "uint256",
          "name": "amount",
          "type": "uint256"
        },
        {
          "indexed": false,
          "internalType": "uint256",
          "name": "balance",
          "type": "uint256"
        }
      ],
      "name": "Withdraw",
      "type": "event"
    },
    {
      "inputs": [],
      "name": "feeAccount",
      "outputs": [
        {
          "internalType": "address",
          "name": "",
          "type": "address"
        }
      ],
      "stateMutability": "view",
      "type": "function",
      "constant": true
    },
    {
      "inputs": [],
      "name": "feeRate",
      "outputs": [
        {
          "internalType": "uint256",
          "name": "",
          "type": "uint256"
        }
      ],
      "stateMutability": "view",
      "type": "function",
      "constant": true
    },
    {
      "inputs": [],
      "name": "orderCount",
      "outputs": [
        {
          "internalType": "uint256",
          "name": "",
          "type": "uint256"
        }
      ],
      "stateMutability": "view",
      "type": "function",
      "constant": true
    },
    {
      "inputs": [
        {
          "internalType": "uint256",
          "name": "",
          "type": "uint256"
        }
      ],
      "name": "orders",
      "outputs": [
        {
          "internalType": "uint256",
          "name": "id",
          "type": "uint256"
        },
        {
          "internalType": "address",
          "name": "user",
          "type": "address"
        },
        {
          "internalType": "address",
          "name": "tokenGet",
          "type": "address"
        },
        {
          "internalType": "uint256",
          "name": "amountGet",
          "type": "uint256"
        },
        {
          "internalType": "address",
          "name": "tokenGive",
          "type": "address"
        },
        {
          "internalType": "uint256",
          "name": "amountGive",
          "type": "uint256"
        },
        {
          "internalType": "uint256",
          "name": "timestamp",
          "type": "uint256"
        }
      ],
      "stateMutability": "view",
      "type": "function",
      "constant": true
    },
    {
      "inputs": [
        {
          "internalType": "uint256",
          "name": "",
          "type": "uint256"
        }
      ],
      "name": "ordersCancelled",
      "outputs": [
        {
          "internalType": "bool",
          "name": "",
          "type": "bool"
        }
      ],
      "stateMutability": "view",
      "type": "function",
      "constant": true
    },
    {
      "inputs": [
        {
          "internalType": "uint256",
          "name": "",
          "type": "uint256"
        }
      ],
      "name": "ordersFilled",
      "outputs": [
        {
          "internalType": "bool",
          "name": "",
          "type": "bool"
        }
      ],
      "stateMutability": "view",
      "type": "function",
      "constant": true
    },
    {
      "inputs": [
        {
          "internalType": "address",
          "name": "",
          "type": "address"
        },
        {
          "internalType": "address",
          "name": "",
          "type": "address"
        }
      ],
      "name": "tokens",
      "outputs": [
        {
          "internalType": "uint256",
          "name": "",
          "type": "uint256"
        }
      ],
      "stateMutability": "view",
      "type": "function",
      "constant": true
    },
    {
      "stateMutability": "payable",
      "type": "receive",
      "payable": true
    },
    {
      "inputs": [],
      "name": "depositEther",
      "outputs": [],
      "stateMutability": "payable",
      "type": "function",
      "payable": true
    },
    {
      "inputs": [
        {
          "internalType": "uint256",
          "name": "_amount",
          "type": "uint256"
        }
      ],
      "name": "withdrawEther",
      "outputs": [],
      "stateMutability": "nonpayable",
      "type": "function"
    },
    {
      "inputs": [
        {
          "internalType": "address",
          "name": "_token",
          "type": "address"
        },
        {
          "internalType": "uint256",
          "name": "_amount",
          "type": "uint256"
        }
      ],
      "name": "depositToken",
      "outputs": [],
      "stateMutability": "nonpayable",
      "type": "function"
    },
    {
      "inputs": [
        {
          "internalType": "address",
          "name": "_token",
          "type": "address"
        },
        {
          "internalType": "uint256",
          "name": "_amount",
          "type": "uint256"
        }
      ],
      "name": "withdrawToken",
      "outputs": [],
      "stateMutability": "nonpayable",
      "type": "function"
    },
    {
      "inputs": [
        {
          "internalType": "address",
          "name": "_token",
          "type": "address"
        },
        {
          "internalType": "address",
          "name": "_user",
          "type": "address"
        }
      ],
      "name": "balanceOf",
      "outputs": [
        {
          "internalType": "uint256",
          "name": "",
          "type": "uint256"
        }
      ],
      "stateMutability": "view",
      "type": "function",
      "constant": true
    },
    {
      "inputs": [
        {
          "internalType": "address",
          "name": "_tokenGet",
          "type": "address"
        },
        {
          "internalType": "uint256",
          "name": "_amountGet",
          "type": "uint256"
        },
        {
          "internalType": "address",
          "name": "_tokenGive",
          "type": "address"
        },
        {
          "internalType": "uint256",
          "name": "_amountGive",
          "type": "uint256"
        }
      ],
      "name": "makeOrder",
      "outputs": [],
      "stateMutability": "nonpayable",
      "type": "function"
    },
    {
      "inputs": [
        {
          "internalType": "uint256",
          "name": "_id",
          "type": "uint256"
        }
      ],
      "name": "cancelOrder",
      "outputs": [],
      "stateMutability": "nonpayable",
      "type": "function"
    },
    {
      "inputs": [
        {
          "internalType": "uint256",
          "name": "_id",
          "type": "uint256"
        }
      ],
      "name": "fillOrder",
      "outputs": [],
      "stateMutability": "nonpayable",
      "type": "function"
    }
  ],
  "bytecode": "0x60806040523480156200001157600080fd5b5060405162001d6638038062001d668339818101604052810190620000379190620000b4565b816000806101000a81548173ffffffffffffffffffffffffffffffffffffffff021916908373ffffffffffffffffffffffffffffffffffffffff16021790555080600181905550505062000172565b60008151905062000097816200013e565b92915050565b600081519050620000ae8162000158565b92915050565b60008060408385031215620000ce57620000cd62000139565b5b6000620000de8582860162000086565b9250506020620000f1858286016200009d565b9150509250929050565b600062000108826200010f565b9050919050565b600073ffffffffffffffffffffffffffffffffffffffff82169050919050565b6000819050919050565b600080fd5b6200014981620000fb565b81146200015557600080fd5b50565b62000163816200012f565b81146200016f57600080fd5b50565b611be480620001826000396000f3fe6080604052600436106100ec5760003560e01c806367b830ad1161008a5780639e281a98116100595780639e281a98146102cd578063a85c38ef146102f6578063c72abc5014610339578063f7888aec14610376576100f6565b806367b830ad14610246578063978bbdb91461026f57806398ea5fca1461029a5780639a5c90aa146102a4576100f6565b80633bed33ce116100c65780633bed33ce1461018c578063508493bc146101b5578063514fcac7146101f257806365e17c9d1461021b576100f6565b806321168620146100fb5780632453ffa814610138578063338b5dea14610163576100f6565b366100f657600080fd5b600080fd5b34801561010757600080fd5b50610122600480360381019061011d9190611723565b6103b3565b60405161012f919061183d565b60405180910390f35b34801561014457600080fd5b5061014d6103d3565b60405161015a9190611858565b60405180910390f35b34801561016f57600080fd5b5061018a6004803603810190610185919061164f565b6103d9565b005b34801561019857600080fd5b506101b360048036038101906101ae9190611723565b6105fb565b005b3480156101c157600080fd5b506101dc60048036038101906101d7919061160f565b61081b565b6040516101e99190611858565b60405180910390f35b3480156101fe57600080fd5b5061021960048036038101906102149190611723565b610840565b005b34801561022757600080fd5b506102306109a5565b60405161023d919061177d565b60405180910390f35b34801561025257600080fd5b5061026d60048036038101906102689190611723565b6109c9565b005b34801561027b57600080fd5b50610284610b0b565b6040516102919190611858565b60405180910390f35b6102a2610b11565b005b3480156102b057600080fd5b506102cb60048036038101906102c6919061168f565b610c60565b005b3480156102d957600080fd5b506102f460048036038101906102ef919061164f565b610e67565b005b34801561030257600080fd5b5061031d60048036038101906103189190611723565b611110565b60405161033097969594939291906118f1565b60405180910390f35b34801561034557600080fd5b50610360600480360381019061035b9190611723565b6111b2565b60405161036d919061183d565b60405180910390f35b34801561038257600080fd5b5061039d6004803603810190610398919061160f565b6111d2565b6040516103aa9190611858565b60405180910390f35b60066020528060005260406000206000915054906101000a900460ff1681565b60045481565b600073ffffffffffffffffffffffffffffffffffffffff168273ffffffffffffffffffffffffffffffffffffffff16141561041357600080fd5b8173ffffffffffffffffffffffffffffffffffffffff166323b872dd3330846040518463ffffffff1660e01b815260040161045093929190611798565b602060405180830381600087803b15801561046a57600080fd5b505af115801561047e573d6000803e3d6000fd5b505050506040513d601f19601f820116820180604052508101906104a291906116f6565b6104ab57600080fd5b80600260008473ffffffffffffffffffffffffffffffffffffffff1673ffffffffffffffffffffffffffffffffffffffff16815260200190815260200160002060003373ffffffffffffffffffffffffffffffffffffffff1673ffffffffffffffffffffffffffffffffffffffff16815260200190815260200160002060008282546105379190611960565b925050819055507fdcbc1c05240f31ff3ad067ef1ee35ce4997762752e3a095284754544f4c709d7823383600260008773ffffffffffffffffffffffffffffffffffffffff1673ffffffffffffffffffffffffffffffffffffffff16815260200190815260200160002060003373ffffffffffffffffffffffffffffffffffffffff1673ffffffffffffffffffffffffffffffffffffffff168152602001908152602001600020546040516105ef94939291906117cf565b60405180910390a15050565b80600260008073ffffffffffffffffffffffffffffffffffffffff1673ffffffffffffffffffffffffffffffffffffffff16815260200190815260200160002060003373ffffffffffffffffffffffffffffffffffffffff1673ffffffffffffffffffffffffffffffffffffffff16815260200190815260200160002054101561068457600080fd5b80600260008073ffffffffffffffffffffffffffffffffffffffff1673ffffffffffffffffffffffffffffffffffffffff16815260200190815260200160002060003373ffffffffffffffffffffffffffffffffffffffff1673ffffffffffffffffffffffffffffffffffffffff16815260200190815260200160002060008282546107109190611a41565b925050819055503373ffffffffffffffffffffffffffffffffffffffff166108fc829081150290604051600060405180830381858888f1935050505015801561075d573d6000803e3d6000fd5b507ff341246adaac6f497bc2a656f546ab9e182111d630394f0c57c710a59a2cb56760003383600260008073ffffffffffffffffffffffffffffffffffffffff1673ffffffffffffffffffffffffffffffffffffffff16815260200190815260200160002060003373ffffffffffffffffffffffffffffffffffffffff1673ffffffffffffffffffffffffffffffffffffffff1681526020019081526020016000205460405161081094939291906117cf565b60405180910390a150565b6002602052816000526040600020602052806000526040600020600091509150505481565b60008111801561085257506004548111155b61085b57600080fd5b60006003600083815260200190815260200160002090503373ffffffffffffffffffffffffffffffffffffffff168160010160009054906101000a900473ffffffffffffffffffffffffffffffffffffffff1673ffffffffffffffffffffffffffffffffffffffff16146108ce57600080fd5b818160000154146108de57600080fd5b60016005600084815260200190815260200160002060006101000a81548160ff0219169083151502179055507f77de1da0be5f2d3b110d05c6694e5c4ff2d9da7cd23d84353ecf78c7b5acec618160000154338360020160009054906101000a900473ffffffffffffffffffffffffffffffffffffffff1684600301548560040160009054906101000a900473ffffffffffffffffffffffffffffffffffffffff1686600501544260405161099997969594939291906118f1565b60405180910390a15050565b60008054906101000a900473ffffffffffffffffffffffffffffffffffffffff1681565b6000811180156109db57506004548111155b6109e457600080fd5b6006600082815260200190815260200160002060009054906101000a900460ff1615610a0f57600080fd5b6005600082815260200190815260200160002060009054906101000a900460ff1615610a3a57600080fd5b6000600360008381526020019081526020016000209050610ad781600001548260010160009054906101000a900473ffffffffffffffffffffffffffffffffffffffff168360020160009054906101000a900473ffffffffffffffffffffffffffffffffffffffff1684600301548560040160009054906101000a900473ffffffffffffffffffffffffffffffffffffffff168660050154611259565b6001600660008360000154815260200190815260200160002060006101000a81548160ff0219169083151502179055505050565b60015481565b34600260008073ffffffffffffffffffffffffffffffffffffffff1673ffffffffffffffffffffffffffffffffffffffff16815260200190815260200160002060003373ffffffffffffffffffffffffffffffffffffffff1673ffffffffffffffffffffffffffffffffffffffff1681526020019081526020016000206000828254610b9d9190611960565b925050819055507fdcbc1c05240f31ff3ad067ef1ee35ce4997762752e3a095284754544f4c709d760003334600260008073ffffffffffffffffffffffffffffffffffffffff1673ffffffffffffffffffffffffffffffffffffffff16815260200190815260200160002060003373ffffffffffffffffffffffffffffffffffffffff1673ffffffffffffffffffffffffffffffffffffffff16815260200190815260200160002054604051610c5694939291906117cf565b60405180910390a1565b60046000815480929190610c7390611abd565b91905055506040518060e0016040528060045481526020013373ffffffffffffffffffffffffffffffffffffffff1681526020018573ffffffffffffffffffffffffffffffffffffffff1681526020018481526020018373ffffffffffffffffffffffffffffffffffffffff168152602001828152602001428152506003600060045481526020019081526020016000206000820151816000015560208201518160010160006101000a81548173ffffffffffffffffffffffffffffffffffffffff021916908373ffffffffffffffffffffffffffffffffffffffff16021790555060408201518160020160006101000a81548173ffffffffffffffffffffffffffffffffffffffff021916908373ffffffffffffffffffffffffffffffffffffffff1602179055506060820151816003015560808201518160040160006101000a81548173ffffffffffffffffffffffffffffffffffffffff021916908373ffffffffffffffffffffffffffffffffffffffff16021790555060a0820151816005015560c082015181600601559050507f9d33853d43e3607b4cc01fdc78338ff2dca6fef7db9232dae6d3eb55fbc3b109600454338686868660036000600454815260200190815260200160002060060154604051610e5997969594939291906118f1565b60405180910390a150505050565b600073ffffffffffffffffffffffffffffffffffffffff168273ffffffffffffffffffffffffffffffffffffffff161415610ea157600080fd5b80600260008473ffffffffffffffffffffffffffffffffffffffff1673ffffffffffffffffffffffffffffffffffffffff16815260200190815260200160002060003373ffffffffffffffffffffffffffffffffffffffff1673ffffffffffffffffffffffffffffffffffffffff168152602001908152602001600020541015610f2a57600080fd5b80600260008473ffffffffffffffffffffffffffffffffffffffff1673ffffffffffffffffffffffffffffffffffffffff16815260200190815260200160002060003373ffffffffffffffffffffffffffffffffffffffff1673ffffffffffffffffffffffffffffffffffffffff1681526020019081526020016000206000828254610fb69190611a41565b925050819055508173ffffffffffffffffffffffffffffffffffffffff1663a9059cbb33836040518363ffffffff1660e01b8152600401610ff8929190611814565b602060405180830381600087803b15801561101257600080fd5b505af1158015611026573d6000803e3d6000fd5b505050506040513d601f19601f8201168201806040525081019061104a91906116f6565b61105357600080fd5b7ff341246adaac6f497bc2a656f546ab9e182111d630394f0c57c710a59a2cb567823383600260008773ffffffffffffffffffffffffffffffffffffffff1673ffffffffffffffffffffffffffffffffffffffff16815260200190815260200160002060003373ffffffffffffffffffffffffffffffffffffffff1673ffffffffffffffffffffffffffffffffffffffff1681526020019081526020016000205460405161110494939291906117cf565b60405180910390a15050565b60036020528060005260406000206000915090508060000154908060010160009054906101000a900473ffffffffffffffffffffffffffffffffffffffff16908060020160009054906101000a900473ffffffffffffffffffffffffffffffffffffffff16908060030154908060040160009054906101000a900473ffffffffffffffffffffffffffffffffffffffff16908060050154908060060154905087565b60056020528060005260406000206000915054906101000a900460ff1681565b6000600260008473ffffffffffffffffffffffffffffffffffffffff1673ffffffffffffffffffffffffffffffffffffffff16815260200190815260200160002060008373ffffffffffffffffffffffffffffffffffffffff1673ffffffffffffffffffffffffffffffffffffffff16815260200190815260200160002054905092915050565b600060646001548561126b91906119e7565b61127591906119b6565b905080846112839190611960565b600260008773ffffffffffffffffffffffffffffffffffffffff1673ffffffffffffffffffffffffffffffffffffffff16815260200190815260200160002060003373ffffffffffffffffffffffffffffffffffffffff1673ffffffffffffffffffffffffffffffffffffffff168152602001908152602001600020600082825461130e9190611a41565b9250508190555083600260008773ffffffffffffffffffffffffffffffffffffffff1673ffffffffffffffffffffffffffffffffffffffff16815260200190815260200160002060008873ffffffffffffffffffffffffffffffffffffffff1673ffffffffffffffffffffffffffffffffffffffff16815260200190815260200160002060008282546113a19190611960565b9250508190555080600260008773ffffffffffffffffffffffffffffffffffffffff1673ffffffffffffffffffffffffffffffffffffffff16815260200190815260200160002060008060009054906101000a900473ffffffffffffffffffffffffffffffffffffffff1673ffffffffffffffffffffffffffffffffffffffff1673ffffffffffffffffffffffffffffffffffffffff16815260200190815260200160002060008282546114559190611960565b9250508190555081600260008573ffffffffffffffffffffffffffffffffffffffff1673ffffffffffffffffffffffffffffffffffffffff16815260200190815260200160002060008873ffffffffffffffffffffffffffffffffffffffff1673ffffffffffffffffffffffffffffffffffffffff16815260200190815260200160002060008282546114e89190611a41565b9250508190555081600260008573ffffffffffffffffffffffffffffffffffffffff1673ffffffffffffffffffffffffffffffffffffffff16815260200190815260200160002060003373ffffffffffffffffffffffffffffffffffffffff1673ffffffffffffffffffffffffffffffffffffffff168152602001908152602001600020600082825461157b9190611960565b925050819055507f0dddf4182dc0fc1a311cb75f049c97403c6b8a99cf6b2229a36e7c526acb3f8187878787878733426040516115bf989796959493929190611873565b60405180910390a150505050505050565b6000813590506115df81611b69565b92915050565b6000815190506115f481611b80565b92915050565b60008135905061160981611b97565b92915050565b6000806040838503121561162657611625611b64565b5b6000611634858286016115d0565b9250506020611645858286016115d0565b9150509250929050565b6000806040838503121561166657611665611b64565b5b6000611674858286016115d0565b9250506020611685858286016115fa565b9150509250929050565b600080600080608085870312156116a9576116a8611b64565b5b60006116b7878288016115d0565b94505060206116c8878288016115fa565b93505060406116d9878288016115d0565b92505060606116ea878288016115fa565b91505092959194509250565b60006020828403121561170c5761170b611b64565b5b600061171a848285016115e5565b91505092915050565b60006020828403121561173957611738611b64565b5b6000611747848285016115fa565b91505092915050565b61175981611a75565b82525050565b61176881611a87565b82525050565b61177781611ab3565b82525050565b60006020820190506117926000830184611750565b92915050565b60006060820190506117ad6000830186611750565b6117ba6020830185611750565b6117c7604083018461176e565b949350505050565b60006080820190506117e46000830187611750565b6117f16020830186611750565b6117fe604083018561176e565b61180b606083018461176e565b95945050505050565b60006040820190506118296000830185611750565b611836602083018461176e565b9392505050565b6000602082019050611852600083018461175f565b92915050565b600060208201905061186d600083018461176e565b92915050565b600061010082019050611889600083018b61176e565b611896602083018a611750565b6118a36040830189611750565b6118b0606083018861176e565b6118bd6080830187611750565b6118ca60a083018661176e565b6118d760c0830185611750565b6118e460e083018461176e565b9998505050505050505050565b600060e082019050611906600083018a61176e565b6119136020830189611750565b6119206040830188611750565b61192d606083018761176e565b61193a6080830186611750565b61194760a083018561176e565b61195460c083018461176e565b98975050505050505050565b600061196b82611ab3565b915061197683611ab3565b9250827fffffffffffffffffffffffffffffffffffffffffffffffffffffffffffffffff038211156119ab576119aa611b06565b5b828201905092915050565b60006119c182611ab3565b91506119cc83611ab3565b9250826119dc576119db611b35565b5b828204905092915050565b60006119f282611ab3565b91506119fd83611ab3565b9250817fffffffffffffffffffffffffffffffffffffffffffffffffffffffffffffffff0483118215151615611a3657611a35611b06565b5b828202905092915050565b6000611a4c82611ab3565b9150611a5783611ab3565b925082821015611a6a57611a69611b06565b5b828203905092915050565b6000611a8082611a93565b9050919050565b60008115159050919050565b600073ffffffffffffffffffffffffffffffffffffffff82169050919050565b6000819050919050565b6000611ac882611ab3565b91507fffffffffffffffffffffffffffffffffffffffffffffffffffffffffffffffff821415611afb57611afa611b06565b5b600182019050919050565b7f4e487b7100000000000000000000000000000000000000000000000000000000600052601160045260246000fd5b7f4e487b7100000000000000000000000000000000000000000000000000000000600052601260045260246000fd5b600080fd5b611b7281611a75565b8114611b7d57600080fd5b50565b611b8981611a87565b8114611b9457600080fd5b50565b611ba081611ab3565b8114611bab57600080fd5b5056fea264697066735822122081de95a4097434aeec9f32987cc438c9331695d31551a0662447fc3bbefc0b4664736f6c63430008070033",
  "immutableReferences": {},
  "source": "// SPDX-License-Identifier: MIT\r\npragma solidity ^0.8.7;\r\n\r\nimport \"./Token.sol\";\r\n\r\ncontract Exchange {\r\n\r\n   // Variables\r\n   address public feeAccount;\r\n   uint256 public feeRate;\r\n   address constant ETHER = address(0);        // Allows storage of Ether balances in 'tokens' mapping\r\n   mapping(address => mapping(address => uint256)) public tokens;    //  token => customer => amount\r\n   \r\n   mapping(uint256 => _Order) public orders;\r\n   uint256 public orderCount;\r\n\r\n   mapping(uint256 => bool) public ordersCancelled;\r\n   mapping(uint256 => bool) public ordersFilled;\r\n\r\n   // Events\r\n   event Deposit(address token, address user, uint256 amount, uint256 balance);\r\n   event Withdraw(address token, address user, uint256 amount, uint256 balance);\r\n   event Order(\r\n      uint256 id,\r\n      address user,\r\n      address tokenGet,\r\n      uint256 amountGet,\r\n      address tokenGive,\r\n      uint256 amountGive,\r\n      uint256 timestamp\r\n   );\r\n   event Cancel(   \r\n      uint256 id,\r\n      address user,\r\n      address tokenGet,\r\n      uint256 amountGet,\r\n      address tokenGive,\r\n      uint256 amountGive,\r\n      uint256 timestamp\r\n   );\r\n   event Trade(   \r\n      uint256 id,\r\n      address user,\r\n      address tokenGet,\r\n      uint256 amountGet,\r\n      address tokenGive,\r\n      uint256 amountGive,\r\n      address userFill,\r\n      uint256 timestamp\r\n   );\r\n\r\n   // Structs\r\n   struct _Order {\r\n      uint256 id;\r\n      address user;\r\n      address tokenGet;\r\n      uint256 amountGet;\r\n      address tokenGive;\r\n      uint256 amountGive;\r\n      uint256 timestamp;\r\n   }\r\n   // -------------------------------------------------------------------------\r\n\r\n   constructor (address _feeAccount, uint256 _feeRate) {\r\n      feeAccount = _feeAccount;\r\n      feeRate = _feeRate;\r\n   }\r\n\r\n   receive() external payable {\r\n      revert();\r\n   }\r\n\r\n   function depositEther() payable public {\r\n      tokens[ETHER][msg.sender] += msg.value;\r\n      emit Deposit(ETHER, msg.sender, msg.value, tokens[ETHER][msg.sender]);\r\n   }\r\n\r\n   function withdrawEther(uint _amount) public {\r\n      require(tokens[ETHER][msg.sender] >= _amount);\r\n      \r\n      tokens[ETHER][msg.sender] -= _amount;\r\n      payable(msg.sender).transfer(_amount);\r\n      emit Withdraw(ETHER, msg.sender, _amount, tokens[ETHER][msg.sender]);\r\n   }\r\n\r\n   function depositToken(address _token, uint _amount) public {\r\n      require(_token != ETHER);\r\n      require(Token(_token).transferFrom(msg.sender, address(this), _amount));\r\n      \r\n      tokens[_token][msg.sender] += _amount;\r\n      emit Deposit(_token, msg.sender, _amount, tokens[_token][msg.sender]);\r\n   }\r\n\r\n   function withdrawToken(address _token, uint256 _amount) public {\r\n      require(_token != ETHER);\r\n      require(tokens[_token][msg.sender] >= _amount);\r\n      \r\n      tokens[_token][msg.sender] -= _amount;\r\n      require(Token(_token).transfer(msg.sender, _amount));\r\n      emit Withdraw(_token, msg.sender, _amount, tokens[_token][msg.sender]);\r\n   }\r\n\r\n   function balanceOf(address _token, address _user) public view returns (uint256) {\r\n      return tokens[_token][_user];\r\n   }\r\n\r\n   function makeOrder (\r\n      address _tokenGet, \r\n      uint256 _amountGet, \r\n      address _tokenGive, \r\n      uint256 _amountGive\r\n   ) public {\r\n      orderCount++;\r\n      orders[orderCount] = _Order(\r\n         orderCount, \r\n         msg.sender, \r\n         _tokenGet, \r\n         _amountGet, \r\n         _tokenGive, \r\n         _amountGive, \r\n         block.timestamp\r\n      );\r\n      emit Order(\r\n         orderCount, \r\n         msg.sender, \r\n         _tokenGet, \r\n         _amountGet, \r\n         _tokenGive, \r\n         _amountGive, \r\n         orders[orderCount].timestamp\r\n      );\r\n   }\r\n\r\n   function cancelOrder(uint256 _id) public {\r\n      require(_id > 0 && _id <= orderCount);\r\n      _Order storage _order = orders[_id];\r\n      require(address(_order.user) == msg.sender);\r\n      require(_order.id == _id);\r\n      \r\n      ordersCancelled[_id] = true;\r\n      emit Cancel(\r\n         _order.id, \r\n         msg.sender, \r\n         _order.tokenGet, \r\n         _order.amountGet, \r\n         _order.tokenGive, \r\n         _order.amountGive, \r\n         block.timestamp\r\n      );\r\n   }\r\n\r\n   function fillOrder(uint256 _id) public {\r\n      require(_id > 0 && _id <= orderCount);\r\n      require(!ordersFilled[_id]);\r\n      require(!ordersCancelled[_id]);\r\n      \r\n      _Order storage _order = orders[_id];\r\n      _trade(\r\n         _order.id, \r\n         _order.user, \r\n         _order.tokenGet, \r\n         _order.amountGet, \r\n         _order.tokenGive, \r\n         _order.amountGive\r\n      );\r\n      ordersFilled[_order.id] = true;\r\n   }\r\n\r\n   function _trade(\r\n      uint256 _orderId, \r\n      address _user, \r\n      address _tokenGet, \r\n      uint256 _amountGet, \r\n      address _tokenGive, \r\n      uint256 _amountGive\r\n      ) internal {\r\n      uint256 _feeAmount = _amountGet * feeRate / 100;\r\n\r\n      tokens[_tokenGet][msg.sender] -= (_amountGet + _feeAmount);\r\n      tokens[_tokenGet][_user] += _amountGet;\r\n      tokens[_tokenGet][feeAccount] += _feeAmount;\r\n      \r\n      tokens[_tokenGive][_user] -= _amountGive;\r\n      tokens[_tokenGive][msg.sender] += _amountGive;\r\n      \r\n      emit Trade(\r\n         _orderId, \r\n         _user, \r\n         _tokenGet, \r\n         _amountGet, \r\n         _tokenGive, \r\n         _amountGive, \r\n         msg.sender, \r\n         block.timestamp\r\n      );\r\n   }\r\n}",
  "sourcePath": "C:\\C-Projects\\dex\\src\\contracts\\Exchange.sol",
  "compiler": {
    "name": "solc",
    "version": "0.8.7+commit.e28d00a7.Emscripten.clang"
  },
  "schemaVersion": "3.4.3",
  "updatedAt": "2021-09-30T15:27:43.674Z",
  "networkType": "ethereum",
  "devdoc": {
    "kind": "dev",
    "methods": {},
    "version": 1
  },
  "userdoc": {
    "kind": "user",
    "methods": {},
    "version": 1
  }
}