{
  "contractName": "Token",
  "abi": [
    {
      "inputs": [],
      "stateMutability": "nonpayable",
      "type": "constructor"
    },
    {
      "anonymous": false,
      "inputs": [
        {
          "indexed": true,
          "internalType": "address",
          "name": "owner",
          "type": "address"
        },
        {
          "indexed": true,
          "internalType": "address",
          "name": "spender",
          "type": "address"
        },
        {
          "indexed": false,
          "internalType": "uint256",
          "name": "value",
          "type": "uint256"
        }
      ],
      "name": "Approval",
      "type": "event"
    },
    {
      "anonymous": false,
      "inputs": [
        {
          "indexed": true,
          "internalType": "address",
          "name": "from",
          "type": "address"
        },
        {
          "indexed": true,
          "internalType": "address",
          "name": "to",
          "type": "address"
        },
        {
          "indexed": false,
          "internalType": "uint256",
          "name": "value",
          "type": "uint256"
        }
      ],
      "name": "Transfer",
      "type": "event"
    },
    {
      "inputs": [
        {
          "internalType": "address",
          "name": "",
          "type": "address"
        },
        {
          "internalType": "address",
          "name": "",
          "type": "address"
        }
      ],
      "name": "allowance",
      "outputs": [
        {
          "internalType": "uint256",
          "name": "",
          "type": "uint256"
        }
      ],
      "stateMutability": "view",
      "type": "function",
      "constant": true
    },
    {
      "inputs": [
        {
          "internalType": "address",
          "name": "",
          "type": "address"
        }
      ],
      "name": "balanceOf",
      "outputs": [
        {
          "internalType": "uint256",
          "name": "",
          "type": "uint256"
        }
      ],
      "stateMutability": "view",
      "type": "function",
      "constant": true
    },
    {
      "inputs": [],
      "name": "decimals",
      "outputs": [
        {
          "internalType": "uint256",
          "name": "",
          "type": "uint256"
        }
      ],
      "stateMutability": "view",
      "type": "function",
      "constant": true
    },
    {
      "inputs": [],
      "name": "name",
      "outputs": [
        {
          "internalType": "string",
          "name": "",
          "type": "string"
        }
      ],
      "stateMutability": "view",
      "type": "function",
      "constant": true
    },
    {
      "inputs": [],
      "name": "symbol",
      "outputs": [
        {
          "internalType": "string",
          "name": "",
          "type": "string"
        }
      ],
      "stateMutability": "view",
      "type": "function",
      "constant": true
    },
    {
      "inputs": [],
      "name": "totalSupply",
      "outputs": [
        {
          "internalType": "uint256",
          "name": "",
          "type": "uint256"
        }
      ],
      "stateMutability": "view",
      "type": "function",
      "constant": true
    },
    {
      "inputs": [
        {
          "internalType": "address",
          "name": "_to",
          "type": "address"
        },
        {
          "internalType": "uint256",
          "name": "_value",
          "type": "uint256"
        }
      ],
      "name": "transfer",
      "outputs": [
        {
          "internalType": "bool",
          "name": "success",
          "type": "bool"
        }
      ],
      "stateMutability": "nonpayable",
      "type": "function"
    },
    {
      "inputs": [
        {
          "internalType": "address",
          "name": "_spender",
          "type": "address"
        },
        {
          "internalType": "uint256",
          "name": "_value",
          "type": "uint256"
        }
      ],
      "name": "approve",
      "outputs": [
        {
          "internalType": "bool",
          "name": "success",
          "type": "bool"
        }
      ],
      "stateMutability": "nonpayable",
      "type": "function"
    },
    {
      "inputs": [
        {
          "internalType": "address",
          "name": "_from",
          "type": "address"
        },
        {
          "internalType": "address",
          "name": "_to",
          "type": "address"
        },
        {
          "internalType": "uint256",
          "name": "_value",
          "type": "uint256"
        }
      ],
      "name": "transferFrom",
      "outputs": [
        {
          "internalType": "bool",
          "name": "success",
          "type": "bool"
        }
      ],
      "stateMutability": "nonpayable",
      "type": "function"
    },
    {
      "inputs": [],
      "name": "faucet",
      "outputs": [],
      "stateMutability": "nonpayable",
      "type": "function"
    }
  ],
  "bytecode": "0x60806040526040518060400160405280600981526020017f44455820546f6b656e00000000000000000000000000000000000000000000008152506000908051906020019062000051929190620001c9565b506040518060400160405280600381526020017f4445580000000000000000000000000000000000000000000000000000000000815250600190805190602001906200009f929190620001c9565b506012600255348015620000b257600080fd5b50600254600a620000c491906200030c565b620f4240620000d4919062000449565b6003819055506002600354620000eb919062000279565b600460003373ffffffffffffffffffffffffffffffffffffffff1673ffffffffffffffffffffffffffffffffffffffff1681526020019081526020016000208190555060026003546200013f919062000279565b600460003073ffffffffffffffffffffffffffffffffffffffff1673ffffffffffffffffffffffffffffffffffffffff1681526020019081526020016000208190555033600660006101000a81548173ffffffffffffffffffffffffffffffffffffffff021916908373ffffffffffffffffffffffffffffffffffffffff16021790555062000584565b828054620001d790620004b4565b90600052602060002090601f016020900481019282620001fb576000855562000247565b82601f106200021657805160ff191683800117855562000247565b8280016001018555821562000247579182015b828111156200024657825182559160200191906001019062000229565b5b5090506200025691906200025a565b5090565b5b80821115620002755760008160009055506001016200025b565b5090565b60006200028682620004aa565b91506200029383620004aa565b925082620002a657620002a562000519565b5b828204905092915050565b6000808291508390505b60018511156200030357808604811115620002db57620002da620004ea565b5b6001851615620002eb5780820291505b8081029050620002fb8562000577565b9450620002bb565b94509492505050565b60006200031982620004aa565b91506200032683620004aa565b9250620003557fffffffffffffffffffffffffffffffffffffffffffffffffffffffffffffffff84846200035d565b905092915050565b6000826200036f576001905062000442565b816200037f576000905062000442565b8160018114620003985760028114620003a357620003d9565b600191505062000442565b60ff841115620003b857620003b7620004ea565b5b8360020a915084821115620003d257620003d1620004ea565b5b5062000442565b5060208310610133831016604e8410600b8410161715620004135782820a9050838111156200040d576200040c620004ea565b5b62000442565b620004228484846001620002b1565b925090508184048111156200043c576200043b620004ea565b5b81810290505b9392505050565b60006200045682620004aa565b91506200046383620004aa565b9250817fffffffffffffffffffffffffffffffffffffffffffffffffffffffffffffffff04831182151516156200049f576200049e620004ea565b5b828202905092915050565b6000819050919050565b60006002820490506001821680620004cd57607f821691505b60208210811415620004e457620004e362000548565b5b50919050565b7f4e487b7100000000000000000000000000000000000000000000000000000000600052601160045260246000fd5b7f4e487b7100000000000000000000000000000000000000000000000000000000600052601260045260246000fd5b7f4e487b7100000000000000000000000000000000000000000000000000000000600052602260045260246000fd5b60008160011c9050919050565b61112480620005946000396000f3fe608060405234801561001057600080fd5b506004361061009e5760003560e01c806370a082311161006657806370a082311461015d57806395d89b411461018d578063a9059cbb146101ab578063dd62ed3e146101db578063de5f72fd1461020b5761009e565b806306fdde03146100a3578063095ea7b3146100c157806318160ddd146100f157806323b872dd1461010f578063313ce5671461013f575b600080fd5b6100ab610215565b6040516100b89190610c2c565b60405180910390f35b6100db60048036038101906100d69190610b34565b6102a3565b6040516100e89190610c11565b60405180910390f35b6100f96103ce565b6040516101069190610c8e565b60405180910390f35b61012960048036038101906101249190610ae1565b6103d4565b6040516101369190610c11565b60405180910390f35b610147610554565b6040516101549190610c8e565b60405180910390f35b61017760048036038101906101729190610a74565b61055a565b6040516101849190610c8e565b60405180910390f35b610195610572565b6040516101a29190610c2c565b60405180910390f35b6101c560048036038101906101c09190610b34565b610600565b6040516101d29190610c11565b60405180910390f35b6101f560048036038101906101f09190610aa1565b610663565b6040516102029190610c8e565b60405180910390f35b610213610688565b005b6000805461022290610f95565b80601f016020809104026020016040519081016040528092919081815260200182805461024e90610f95565b801561029b5780601f106102705761010080835404028352916020019161029b565b820191906000526020600020905b81548152906001019060200180831161027e57829003601f168201915b505050505081565b60008073ffffffffffffffffffffffffffffffffffffffff168373ffffffffffffffffffffffffffffffffffffffff1614156102de57600080fd5b81600560003373ffffffffffffffffffffffffffffffffffffffff1673ffffffffffffffffffffffffffffffffffffffff16815260200190815260200160002060008573ffffffffffffffffffffffffffffffffffffffff1673ffffffffffffffffffffffffffffffffffffffff168152602001908152602001600020819055508273ffffffffffffffffffffffffffffffffffffffff163373ffffffffffffffffffffffffffffffffffffffff167f8c5be1e5ebec7d5bd14f71427d1e84f3dd0314c0f7b2291e5b200ac8c7c3b925846040516103bc9190610c8e565b60405180910390a36001905092915050565b60035481565b6000600460008573ffffffffffffffffffffffffffffffffffffffff1673ffffffffffffffffffffffffffffffffffffffff1681526020019081526020016000205482111561042257600080fd5b600560008573ffffffffffffffffffffffffffffffffffffffff1673ffffffffffffffffffffffffffffffffffffffff16815260200190815260200160002060003373ffffffffffffffffffffffffffffffffffffffff1673ffffffffffffffffffffffffffffffffffffffff168152602001908152602001600020548211156104ab57600080fd5b81600560008673ffffffffffffffffffffffffffffffffffffffff1673ffffffffffffffffffffffffffffffffffffffff16815260200190815260200160002060003373ffffffffffffffffffffffffffffffffffffffff1673ffffffffffffffffffffffffffffffffffffffff16815260200190815260200160002060008282546105379190610ee6565b925050819055506105498484846108fa565b600190509392505050565b60025481565b60046020528060005260406000206000915090505481565b6001805461057f90610f95565b80601f01602080910402602001604051908101604052809291908181526020018280546105ab90610f95565b80156105f85780601f106105cd576101008083540402835291602001916105f8565b820191906000526020600020905b8154815290600101906020018083116105db57829003601f168201915b505050505081565b600081600460003373ffffffffffffffffffffffffffffffffffffffff1673ffffffffffffffffffffffffffffffffffffffff16815260200190815260200160002054101561064e57600080fd5b6106593384846108fa565b6001905092915050565b6005602052816000526040600020602052806000526040600020600091509150505481565b600660009054906101000a900473ffffffffffffffffffffffffffffffffffffffff1673ffffffffffffffffffffffffffffffffffffffff163373ffffffffffffffffffffffffffffffffffffffff161461081657600254600a6106ec9190610d6e565b60646106f89190610e8c565b600460003373ffffffffffffffffffffffffffffffffffffffff1673ffffffffffffffffffffffffffffffffffffffff1681526020019081526020016000205410610778576040517f08c379a000000000000000000000000000000000000000000000000000000000815260040161076f90610c4e565b60405180910390fd5b600254600a6107879190610d6e565b61c3506107949190610e8c565b600460003073ffffffffffffffffffffffffffffffffffffffff1673ffffffffffffffffffffffffffffffffffffffff168152602001908152602001600020541015610815576040517f08c379a000000000000000000000000000000000000000000000000000000000815260040161080c90610c6e565b60405180910390fd5b5b600254600a6108259190610d6e565b6101f46108329190610e8c565b600460003073ffffffffffffffffffffffffffffffffffffffff1673ffffffffffffffffffffffffffffffffffffffff16815260200190815260200160002060008282546108809190610ee6565b92505081905550600254600a6108969190610d6e565b6101f46108a39190610e8c565b600460003373ffffffffffffffffffffffffffffffffffffffff1673ffffffffffffffffffffffffffffffffffffffff16815260200190815260200160002060008282546108f19190610cc5565b92505081905550565b600073ffffffffffffffffffffffffffffffffffffffff168273ffffffffffffffffffffffffffffffffffffffff16141561093457600080fd5b80600460008573ffffffffffffffffffffffffffffffffffffffff1673ffffffffffffffffffffffffffffffffffffffff16815260200190815260200160002060008282546109839190610ee6565b9250508190555080600460008473ffffffffffffffffffffffffffffffffffffffff1673ffffffffffffffffffffffffffffffffffffffff16815260200190815260200160002060008282546109d99190610cc5565b925050819055508173ffffffffffffffffffffffffffffffffffffffff168373ffffffffffffffffffffffffffffffffffffffff167fddf252ad1be2c89b69c2b068fc378daa952ba7f163c4a11628f55a4df523b3ef83604051610a3d9190610c8e565b60405180910390a3505050565b600081359050610a59816110c0565b92915050565b600081359050610a6e816110d7565b92915050565b600060208284031215610a8a57610a89611025565b5b6000610a9884828501610a4a565b91505092915050565b60008060408385031215610ab857610ab7611025565b5b6000610ac685828601610a4a565b9250506020610ad785828601610a4a565b9150509250929050565b600080600060608486031215610afa57610af9611025565b5b6000610b0886828701610a4a565b9350506020610b1986828701610a4a565b9250506040610b2a86828701610a5f565b9150509250925092565b60008060408385031215610b4b57610b4a611025565b5b6000610b5985828601610a4a565b9250506020610b6a85828601610a5f565b9150509250929050565b610b7d81610f2c565b82525050565b6000610b8e82610ca9565b610b988185610cb4565b9350610ba8818560208601610f62565b610bb18161102a565b840191505092915050565b6000610bc9602083610cb4565b9150610bd482611048565b602082019050919050565b6000610bec602e83610cb4565b9150610bf782611071565b604082019050919050565b610c0b81610f58565b82525050565b6000602082019050610c266000830184610b74565b92915050565b60006020820190508181036000830152610c468184610b83565b905092915050565b60006020820190508181036000830152610c6781610bbc565b9050919050565b60006020820190508181036000830152610c8781610bdf565b9050919050565b6000602082019050610ca36000830184610c02565b92915050565b600081519050919050565b600082825260208201905092915050565b6000610cd082610f58565b9150610cdb83610f58565b9250827fffffffffffffffffffffffffffffffffffffffffffffffffffffffffffffffff03821115610d1057610d0f610fc7565b5b828201905092915050565b6000808291508390505b6001851115610d6557808604811115610d4157610d40610fc7565b5b6001851615610d505780820291505b8081029050610d5e8561103b565b9450610d25565b94509492505050565b6000610d7982610f58565b9150610d8483610f58565b9250610db17fffffffffffffffffffffffffffffffffffffffffffffffffffffffffffffffff8484610db9565b905092915050565b600082610dc95760019050610e85565b81610dd75760009050610e85565b8160018114610ded5760028114610df757610e26565b6001915050610e85565b60ff841115610e0957610e08610fc7565b5b8360020a915084821115610e2057610e1f610fc7565b5b50610e85565b5060208310610133831016604e8410600b8410161715610e5b5782820a905083811115610e5657610e55610fc7565b5b610e85565b610e688484846001610d1b565b92509050818404811115610e7f57610e7e610fc7565b5b81810290505b9392505050565b6000610e9782610f58565b9150610ea283610f58565b9250817fffffffffffffffffffffffffffffffffffffffffffffffffffffffffffffffff0483118215151615610edb57610eda610fc7565b5b828202905092915050565b6000610ef182610f58565b9150610efc83610f58565b925082821015610f0f57610f0e610fc7565b5b828203905092915050565b6000610f2582610f38565b9050919050565b60008115159050919050565b600073ffffffffffffffffffffffffffffffffffffffff82169050919050565b6000819050919050565b60005b83811015610f80578082015181840152602081019050610f65565b83811115610f8f576000848401525b50505050565b60006002820490506001821680610fad57607f821691505b60208210811415610fc157610fc0610ff6565b5b50919050565b7f4e487b7100000000000000000000000000000000000000000000000000000000600052601160045260246000fd5b7f4e487b7100000000000000000000000000000000000000000000000000000000600052602260045260246000fd5b600080fd5b6000601f19601f8301169050919050565b60008160011c9050919050565b7f6d73672e73656e64657220686173206d6f7265207468616e2031303020444558600082015250565b7f636f6e7472616374206861732068617320696e73756666696369656e7420616d60008201527f6f756e74206f6620746f6b656e73000000000000000000000000000000000000602082015250565b6110c981610f1a565b81146110d457600080fd5b50565b6110e081610f58565b81146110eb57600080fd5b5056fea2646970667358221220232e5a2078946640ddc083070aecd6f804a87fe50d7d9df776016db63ad4a29a64736f6c63430008070033",
  "immutableReferences": {},
  "source": "// SPDX-License-Identifier: MIT\r\npragma solidity ^0.8.7;\r\n\r\ncontract Token {\r\n\r\n   // Variables\r\n   string public name = \"DEX Token\";\r\n   string public symbol = \"DEX\";\r\n   uint256 public decimals = 18;\r\n   uint256 public totalSupply;\r\n   mapping(address => uint256) public balanceOf;\r\n   mapping(address => mapping(address => uint256)) public allowance;       //  owner => approved spenders => amount allowed\r\n   address admin;\r\n\r\n   // Events\r\n   event Transfer(address indexed from, address indexed to, uint256 value);\r\n   event Approval(address indexed owner, address indexed spender, uint256 value);\r\n\r\n\r\n// ------------------------------------------------------------------------------------\r\n   constructor() {\r\n      totalSupply = 1000000 * (10 ** decimals);                // 1,000,000 tokens\r\n      balanceOf[msg.sender] = totalSupply / 2;\r\n      balanceOf[address(this)] = totalSupply / 2;\r\n      admin = msg.sender;\r\n   }\r\n\r\n   function transfer(address _to, uint256 _value) public returns (bool success) {\r\n      require(balanceOf[msg.sender] >= _value);\r\n      _transfer(msg.sender, _to, _value);\r\n      return true;\r\n   }\r\n\r\n   function _transfer(address _from, address _to, uint256 _value) internal {\r\n      require(_to != address(0));\r\n      balanceOf[_from] -= _value;\r\n      balanceOf[_to] += _value;\r\n      emit Transfer(_from, _to, _value);\r\n   }\r\n\r\n   function approve(address _spender, uint256 _value) public returns (bool success) {\r\n      require(_spender != address(0));\r\n      allowance[msg.sender][_spender] = _value;\r\n      emit Approval(msg.sender, _spender, _value);\r\n      return true;\r\n   }\r\n\r\n   function transferFrom(address _from, address _to, uint256 _value) public returns (bool success) {\r\n      require(_value <= balanceOf[_from]);\r\n      require(_value <= allowance[_from][msg.sender]);\r\n      allowance[_from][msg.sender] -= _value;\r\n      _transfer(_from, _to, _value);\r\n      return true;\r\n   }\r\n\r\n   function faucet() public {\r\n      if (msg.sender != admin) {\r\n         require(balanceOf[msg.sender] < 100 * (10 ** decimals), 'msg.sender has more than 100 DEX');\r\n         require(balanceOf[address(this)] >= 50000 * (10 ** decimals), 'contract has has insufficient amount of tokens');\r\n      }\r\n      balanceOf[address(this)] -= 500 * (10 ** decimals);\r\n      balanceOf[msg.sender] += 500 * (10 ** decimals);\r\n   }\r\n}",
  "sourcePath": "C:\\C-Projects\\dex\\src\\contracts\\Token.sol",
  "compiler": {
    "name": "solc",
    "version": "0.8.7+commit.e28d00a7.Emscripten.clang"
  },
  "schemaVersion": "3.4.3",
  "updatedAt": "2021-09-30T15:27:43.648Z",
  "networkType": "ethereum",
  "devdoc": {
    "kind": "dev",
    "methods": {},
    "version": 1
  },
  "userdoc": {
    "kind": "user",
    "methods": {},
    "version": 1
  }
}